:100000000C9464050C948C050C948C050C94BC1E0B
:100010000C94BC1E0C94BC1E0C948C050C948C058A
:100020000C948C050C948C050C948C050C948C050C
:100030000C948C050C948C050C948C050C948C05FC
:100040000C941A1E0C948C050C948A1E0C94641E3D
:100050000C948C050C948C050C948C050C948C05DC
:100060000C94C61E0C948C054E414E494E49545971
:10007000494E46CDCCCC3D0AD7233C17B7D1387773
:10008000CC2B329595E6241FB14F0A000020410089
:1000900000C84200401C4620BCBE4CCA1B0E5AAED3
:1000A000C59D7400000000003E5B4F5B3E3E6B4F01
:1000B0006B3E1C3E7C3E1C183C7E3C181C577D57FA
:1000C0001C1C5E7F5E1C00183C1800FFE7C3E7FFA6
:1000D0000018241800FFE7DBE7FF30483A060E2639
:1000E00029792926407F050507407F05253F5A3C91
:1000F000E73C5A7F3E1C1C08081C1C3E7F14227FD4
:1001000022145F5F005F5F06097F017F00668995AB
:100110006A606060606094A2FFA29408047E040894
:1001200010207E201008082A1C08081C2A08081E17
:10013000101010100C1E0C1E0C30383E3830060EFD
:100140003E0E06000000000000005F0000000700F7
:100150000700147F147F14242A7F2A1223130864B3
:100160006236495620500008070300001C22410057
:100170000041221C002A1C7F1C2A08083E08080097
:100180008070300008080808080000606000201037
:100190000804023E5149453E00427F4000724949F1
:1001A00049462141494D331814127F1027454545D2
:1001B000393C4A49493141211109073649494936F3
:1001C000464949291E000014000000403400000088
:1001D00008142241141414141400412214080201BA
:1001E0005909063E415D594E7C1211127C7F4949E6
:1001F00049363E414141227F4141413E7F49494983
:10020000417F090909013E414151737F0808087F78
:1002100000417F41002040413F017F081422417F7F
:10022000404040407F021C027F7F0408107F3E4117
:1002300041413E7F090909063E4151215E7F09196E
:100240002946264949493203017F01033F40404086
:100250003F1F2040201F3F4038403F631408146375
:1002600003047804036159494D43007F4141410231
:1002700004081020004141417F0402010204404073
:10028000404040000307080020545478407F284431
:1002900044383844444428384444287F385454541B
:1002A0001800087E090218A4A49C787F080404782A
:1002B00000447D40002040403D007F102844000065
:1002C000417F40007C047804787C0804047838443A
:1002D000444438FC1824241818242418FC7C0804EE
:1002E0000408485454542404043F44243C4040200F
:1002F0007C1C2040201C3C4030403C4428102844BA
:100300004C9090907C4464544C440008364100006A
:1003100000770000004136080002010204023C267A
:1003200023263C1EA1A161123A4040207A38545441
:1003300055592155557941225454784221555478C4
:100340004020545579400C1E52721239555555595A
:10035000395454545939555454580000457C41007F
:1003600002457D420001457C407D1211127DF0283E
:100370002528F07C545545002054547C547C0A09AF
:100380007F4932494949323A4444443A324A48481A
:10039000303A4141217A3A42402078009DA0A07D28
:1003A0003D4242423D3D4040403D3C24FF242448E4
:1003B0007E4943662B2FFC2F2BFF0929F620C0888E
:1003C0007E090320545479410000447D413048485F
:1003D0004A32384040227A007A0A0A727D0D193179
:1003E0007D2629292F28262929292630484D4020D5
:1003F000380808080808080808382F10C8ACBA2FB1
:10040000102834FA00007B000008142A1422221459
:100410002A14085500550055AA55AA55AAFF55FF9C
:1004200055FF000000FF00101010FF00141414FF0F
:10043000001010FF00FF1010F010F0141414FC0056
:100440001414F700FF0000FF00FF1414F404FC1460
:100450001417101F10101F101F1414141F00101059
:1004600010F0000000001F101010101F10101010CE
:10047000F010000000FF101010101010101010FFEE
:1004800010000000FF140000FF00FF00001F101705
:100490000000FC04F414141710171414F404F400EE
:1004A00000FF00F714141414141414F700F71414B4
:1004B00014171410101F101F141414F4141010F03B
:1004C00010F000001F101F0000001F14000000FCAF
:1004D000140000F010F01010FF10FF141414FF149B
:1004E0001010101F00000000F010FFFFFFFFFFF0D2
:1004F000F0F0F0F0FFFFFF0000000000FFFF0F0F23
:100500000F0F0F3844443844FC4A4A4A347E0202F2
:100510000606027E027E0263554941633844443C2C
:1005200004407E201E2006027E020299A5E7A599BE
:100530001C2A492A1C4C7201724C304A4D4D3030F5
:1005400048784830BC625A463D3E494949007E01E0
:1005500001017E2A2A2A2A2A44445F444440514AFF
:10056000444040444A51400000FF0103E080FF0046
:100570000008086B6B083612362436060F090F0682
:10058000000018180000001010003040FF010100AA
:100590001F01011E00191D1712003C3C3C3C0000CD
:1005A000000000000103070F1F3F7F0080C0E0F044
:1005B000F8FCFEDB40A4A62EAF2000A1C8D300406B
:1005C0008DAED580A8000060000000000000000093
:1005D000000000000000E00000000000000000003B
:1005E0000000000001E0000000000000000000002A
:1005F00000000001F000000000000000000000000A
:10060000000003F0000000000000000000000000F7
:100610000007F000000000000000000000000000E3
:1006200007F8000000000000000000000000000FBC
:10063000F800000003C0007E000001E0007F0FF81A
:1006400000000003C000FE000001E000FFEFF80022
:10065000000003C000FE000001E000FFFFF8000002
:100660000003C000F00000000F007FFE7FC000000C
:1006700003C000F00000000F003FFE7FF83FF1FBD9
:10068000CFFCFEF3BC3DEFE01FFE7FFF7FFBFFDFF3
:10069000FEFEFFBC3DEFE01FC6FFFF7FFBFFDFFE5E
:1006A000FEFFBC3DEFE00FE3C7FE787BC3DE1EF02C
:1006B000FFBC3DEF0007FF87FC787BC3DE1EF0F830
:1006C0003C3DEF0001FFFFF0007BC3C01EF0F03C9B
:1006D0003DEF0001F37FE03FFBC3CFFEF0F03C3D78
:1006E000EF0003E33F807FFBC3DFFEF0F03C3DEF14
:1006F0000007E73C00787BC3DE1EF0F03C3DEF00D6
:1007000007FFBE00787BC3DE1EF0F03C3DEF000724
:10071000FFFE00787BC3DE1EF0F03C3DEF000FFFD4
:10072000FE007FFBFFDFFEF0F03FFDEFE00FFFFF7D
:10073000007FFBFFDFFEF0F03FFDEFE00FF9FF0071
:100740003E79F9CF9EF0F01F3DE7E01FF1FF00007A
:10075000000000000000000000001F80FF007FFF7D
:10076000FFFFFFFFFFFFFFFFE01C007F007FFFFF99
:10077000FFFEB46D888D18E000001F007FFFFFFFB3
:10078000FE95AD7DB577E000000F007FFFFFFFFE17
:10079000A5AD9D8D19E0000006007FFFFFFFFEB5AF
:1007A000ADEDB57EE000000000000180000000001B
:1007B00000000000000380000000000000000000B6
:1007C00007C000000000000000000007C00000009B
:1007D0000000000000000FC000000000000000004A
:1007E000001FE00000000000000000001FE000000B
:1007F000000000000000003FE000000000000000DA
:1008000000003FF00000000000000000007FF0004A
:100810000000000000001FF87FF000000000000052
:10082000003FFE7FF0000000000000003FFF7FF06F
:10083000000000000000001FFFFBE00000000000BF
:1008400000000FFFF9FFC00000000000000FFFF9DB
:10085000FFF800000000000007FFF1FFFF000000AC
:1008600000000003FC73FFFF80000000000001FE99
:100870003FFFFF80000000000000FF1E0FFF000090
:1008800000000000007FFE1FFC00000000000000D0
:100890003FFFFFF8000000000000000FDFFFE00056
:1008A0000000000000001F19FFC000000000000051
:1008B000003F3CFF00000000000000007E7CF800CC
:1008C000000000000000007FFE7C0000000000002F
:1008D0000000FFFFFC0000000000000000FFFFFE22
:1008E0000000000000000000FFFFFE00000000000C
:1008F000000001FFEFFE0000000000000001FFCF3C
:10090000FE0000000000000003FF07FE00000000E2
:1009100000000003FC07FE0000000000000003F0E0
:1009200003FE00000000000000018000FE00000047
:10093000000000000000007E000000000000000039
:1009400000003E000000000000000000000C00005D
:1009500000000000078000FC000003C0000000074A
:100960008001FC000003C0000000078001FC0000C3
:1009700003C0000000078001E00000001E0000002E
:10098000078001E00000001E007FE3F79FF9FDE70C
:10099000787BDFC0FFF7FFBFFDFDFF787BDFC0FF87
:1009A000F7FFBFFDFDFF787BDFC0F0F787BC3DE1BF
:1009B000FF787BDE00F0F787BC3DE1F0787BDE005E
:1009C00000F787803DE1E0787BDE007FF7879FFDC1
:1009D000E1E0787BDE00FFF787BFFDE1E0787BDEBA
:1009E00000F0F787BC3DE1E0787BDE00F0F787BCE4
:1009F0003DE1E0787BDE00F0F787BC3DE1E0787B0D
:100A0000DE00FFF7FFBFFDE1E07FFBDFC0FFF7FF88
:100A1000BFFDE1E07FFBDFC07CF3F39F3DE1E03E03
:100A20007BCFC00000000000000000000000FFFFBE
:100A3000FFFFFFFFFFFFFFFFC0FFFFFFFFFD68DBC2
:100A4000111A31C0FFFFFFFFFD2B5AFB6AEFC0FFF9
:100A5000FFFFFFFD4B5B3B1A33C0FFFFFFFFFD6B4A
:100A60005BDB6AFDC000000000240027002A0000B4
:100A7000000000250028002B0000000000230026B5
:100A80000029000404040404040404020202020213
:100A90000203030303030301020408102040800142
:100AA00002040810200102040810200000000800C1
:100AB0000201000003040700000000000000002203
:100AC00000FF2100FB1FE51F11241FBECFEFD8E060
:100AD000DEBFCDBF24E0A8E3B2E001C01D92AD3877
:100AE000B207E1F712E0A0E0B1E0E2E3FAE502C00C
:100AF00005900D92A833B107D9F715E0C3E6D5E00C
:100B000004C02197FE010E94F12AC236D107C9F71D
:100B10000E94E0210C940C2D0C9400003F924F9207
:100B20005F926F927F928F929F92AF92BF92CF927D
:100B3000DF92EF92FF920F931F93CF93DF9300D03A
:100B400000D0CDB7DEB79C838B833B016A0159018E
:100B5000DC01ED91FC910284F385E02D09952801DB
:100B6000B7E04B0E511C93E0559447949A95E1F7EA
:100B7000C6018E0D9F1D9A838983912C812C312C67
:100B8000F12CE12CC70187709927330C892B59F47C
:100B9000F70183E0F595E7958A95E1F7E80DF91DF2
:100BA000EA0DFB1D349037FE10C0AB81BC81ED9186
:100BB000FC9111970484F585E02D21E030E0A60139
:100BC000B701660D771DCD010995BFEFEB1AFB0A42
:100BD0000E151F05B9F68FEFC81AD80A840C951C9C
:100BE000A981BA81CA16DB0659F6AB81BC81ED91A9
:100BF000FC9111970688F789E02DCD010F900F9099
:100C00000F900F90DF91CF911F910F91FF90EF9078
:100C1000DF90CF90BF90AF909F908F907F906F901C
:100C20005F904F903F900994CF92DF92EF92FF92A6
:100C30006B017C01E0911503F091160382E0808343
:100C4000C11481EED806E104F104A1F060E079E07E
:100C50008DE390E0A70196010E94BD2A2150310941
:100C6000410951095695479537952795211580E1FA
:100C70003807A8F0E0911503F0911603108260E8A0
:100C800074E88EE190E0A70196010E94BD2A2150F0
:100C90003109410951095695479537952795E091B6
:100CA0001103F09112033083E0911303F0911403C8
:100CB000208310921D03E0911903F0911A0386E03E
:100CC0008083E0911703F091180380818061808315
:100CD000E0911703F0911803808188608083E09190
:100CE0001703F0911803808180688083E0911703D7
:100CF000F091180380818F7D8083FF90EF90DF90CB
:100D0000CF900895833081F028F4813099F08230BB
:100D1000A9F008958730A9F08830C9F08430B1F483
:100D2000809180008F7D03C0809180008F778093B9
:100D30008000089584B58F7784BD089584B58F7D34
:100D4000FBCF8091B0008F778093B00008958091A1
:100D5000B0008F7DF9CFCF93DF93282F30E0F901DA
:100D6000E555F54F8491F901E956F54FD491F90114
:100D7000ED57F54FC491CC23A1F081110E9482065A
:100D8000EC2FF0E0EE0FFF1FE758F54FA591B4915F
:100D9000EC91ED2381E090E009F480E0DF91CF91C8
:100DA000089580E090E0FACF1F93CF93DF93282F30
:100DB00030E0F901E555F54F8491F901E956F54F19
:100DC000D491F901ED57F54FC491CC23A9F0162F1A
:100DD00081110E948206EC2FF0E0EE0FFF1FE15917
:100DE000F54FA591B4918FB7F894EC91111108C00B
:100DF000D095DE23DC938FBFDF91CF911F910895B3
:100E0000DE2BF8CF61E08091CC030C94D406CF9315
:100E1000DF9390E0FC01E956F54F24918D57954FF3
:100E2000FC0184918823D1F090E0880F991FFC0188
:100E3000EB59F54FA591B491FC01E159F54FC591DE
:100E4000D49161110EC09FB7F8948C91E22FE09578
:100E50008E238C932881E223E8839FBFDF91CF917B
:100E600008958FB7F894EC91E22BEC938FBFF6CFF7
:100E70003FB7F8948091F9029091FA02A091FB0299
:100E8000B091FC0226B5A89B05C02F3F19F0019632
:100E9000A11DB11D3FBFBA2FA92F982F8827BC01D4
:100EA000CD01620F711D811D911D42E0660F771FFC
:100EB000881F991F4A95D1F708954F925F926F92BC
:100EC0007F92AF92BF92CF92DF92EF92FF920F93F9
:100ED0001F93CF93DF93CDB7DEB728970FB6F89463
:100EE000DEBF0FBECDBF2B013C010E9438077B0146
:100EF0008C012FEF3FEF4FEF5FEF60E070E080E09D
:100F000090E057016801E12CF12C00E010E00E9414
:100F1000DF2A63015201E12CF12C00E010E00E9475
:100F2000E82A3CF40E943807603472448F409105EF
:100F3000C8F30E943807460E571E681E791E0E948D
:100F400038076415750586059705C8F328960FB60A
:100F5000F894DEBF0FBECDBFDF91CF911F910F91EF
:100F6000FF90EF90DF90CF90BF90AF907F906F9009
:100F70005F904F900895CF93DF93CBECD3E060E088
:100F800089810E94D4066B8D7C8D072E000C880B06
:100F9000990BDF91CF910C945D07CF93DF93CBEC4E
:100FA000D3E08C83682F8B810E94D4066B8D7C8D5F
:100FB000072E000C880B990BDF91CF910C945D07E5
:100FC000CF93DF93CBECD3E061E08A810E94D4061B
:100FD0006B8D7C8D072E000C880B990B0E945D0792
:100FE00060E08A810E94D4066B8D7C8D072E000CF8
:100FF000880B990BDF91CF910C945D07CF93C82F8D
:101000000E94BB076091E6037091E703072E000C76
:10101000880B990B0E945D078C2F0E94CD07609171
:10102000E6037091E703072E000C880B990B0E94D2
:101030005D078091CB030E94AB06892B11F40E94BF
:1010400002070E94020790E080E0CF9108958F92FE
:101050009F92AF92BF92CF92DF92EF92FF924B019D
:101060005C010E9438076B017C010E9438076C19F3
:101070007D098E099F09683E734081059105A8F39B
:1010800021E0821A9108A108B10888EEC80E83E019
:10109000D81EE11CF11C81149104A104B10429F7AC
:1010A000FF90EF90DF90CF90BF90AF909F908F9088
:1010B000089508950895FC0124813581621773070E
:1010C00020F480819181009729F41092EA028AEE3F
:1010D00092E00895860F971F08950895AF92BF92EA
:1010E000CF92DF92EF92FF920F931F93CF93DF93F4
:1010F0006C017B018B01040F151FEB015E01AE1823
:10110000BF08C017D10759F06991D601ED91FC9144
:101110000190F081E02DC6010995892B79F7C50171
:10112000DF91CF911F910F91FF90EF90DF90CF90C3
:10113000BF90AF900895FC01538D448D252F30E072
:10114000842F90E0821B930B541710F0CF960895D4
:1011500001970895FC01918D828D981761F0A28D01
:10116000AE0FBF2FB11D5D968C91928D9F5F9F73C7
:10117000928F90E008958FEF9FEF08952FB7F89426
:101180008091FD029091FE02A091FF02B0910003B8
:101190002FBF80930D0390930E03A0930F03B09382
:1011A000100385E093E00E94AA0897FF26C02FB79E
:1011B000F8948091FD029091FE02A091FF02B091FF
:1011C00000032FBF40910D0350910E0360910F0358
:1011D00070911003841B950BA60BB70B409109036C
:1011E00050910A0360910B0370910C0384179507CB
:1011F000A607B707B0F28FEF9FEF0895FC01918D1E
:10120000828D981731F0828DE80FF11D858D90E069
:1012100008958FEF9FEF0895FC01918D228D892F06
:1012200090E0805C9F4F821B91098F7399270895EE
:1012300085E093E00E940C0921E0892B09F420E06D
:10124000822F089580E090E0892B29F00E941809F0
:1012500081110C9400000895FC01A48DA80FB92FF2
:10126000B11DA35ABF4F2C91848D90E001968F73CE
:101270009927848FA689B7892C93A089B1898C91ED
:10128000837080648C93938D848D981306C002883C
:10129000F389E02D80818F7D80830895EF92FF9206
:1012A0000F931F93CF93DF93EC0181E0888F9B8D89
:1012B0008C8D98131AC0E889F989808185FF15C043
:1012C0009FB7F894EE89FF896083E889F989808166
:1012D0008370806480839FBF81E090E0DF91CF9135
:1012E0001F910F91FF90EF900895F62E0B8D10E057
:1012F0000F5F1F4F0F731127E02E8C8D8E110CC0C6
:101300000FB607FCFACFE889F989808185FFF5CF10
:10131000CE010E942C09F1CFEB8DEC0FFD2FF11DBA
:10132000E35AFF4FF0829FB7F8940B8FEA89FB894D
:1013300080818062CFCFCF93DF93EC01888D8823AB
:10134000B9F0AA89BB89E889F9898C9185FD03C028
:10135000808186FD0DC00FB607FCF7CF8C9185FF0D
:10136000F2CF808185FFEDCFCE010E942C09E9CF1D
:10137000DF91CF910895EF92FF920F931F93CF9338
:10138000DF93EC01EC80FD806E157F050CF070C0E2
:1013900057FF04C0240F351F50E040E08E819F812D
:1013A000FA01E20FF31F8E179F071CF49C01241B08
:1013B000350B121613060CF05BC0922F842F869506
:1013C000869586958E9DD0018F9DB00D11246A0F54
:1013D0007B1FAF8DB8A1A60FB71F477049F188E0FA
:1013E000841B482F682F70E0FB01E555FA4FE4910C
:1013F000281708F063C0621B71092FEF30E002C0AC
:10140000359527956A95E2F7E2230130110539F009
:10141000B0F10230110561F58C91E82702C08C9182
:10142000E82BEC93941720F12C813D81A20FB31F80
:10143000E92FE41BE83078F00230110521F58E2FFA
:101440009C9190959C932C813D81A20FB31F885055
:101450008830B0F7E770EE2359F0F0E0ED55FA4F21
:10146000E49101301105F9F010F10230110519F184
:10147000DF91CF911F910F91FF90EF900895E0952C
:101480008C91E823CECF81E00115110509F480E0AD
:1014900081959E2F8C932C813D81A20FB31F985074
:1014A0009830C0F7D7CF8C91E82BEC93E1CFE09543
:1014B0008C91E823FACF8C91E827F7CF0130110502
:1014C00009F4ADCFE0F20230110509F4A5CFAE0D5D
:1014D000BF1DAECF0F931F93CF93DF9377FF04C051
:1014E000260F371F70E060E0DC011496CD91DC918F
:1014F000FB01E20FF31FCE17DF071CF49E01261B32
:10150000370B121613064CF5FA0157FD3796A3E078
:10151000F595E795AA95E1F7EC9FD001ED9FB00D09
:10152000FC9FB00D11246A0F7B1FDC015F96ED91CB
:10153000FC91E60FF71F4770552781E090E001C04E
:10154000880F4A95EAF7482F0130110559F0A8F0A5
:101550002E0F3F1F02301105E1F0DF91CF911F9157
:101560000F9108952E0F3F1FE217F307B1F38191FA
:10157000DF011197842B8C93F7CF80952E0F3F1F9F
:10158000E217F30751F39191DF01119798239C9390
:10159000F7CFE217F30709F38191DF011197842751
:1015A0008C93F7CF0F931F93FA01DC0156964C9161
:1015B00056974230E9F04330A1F1413061F514967D
:1015C0004D915C91DA01AE1BBF0BFD01E21BF30BE9
:1015D00077FD0BC0DC0116964D915C916417750781
:1015E00024F4AB01BF010E946A0A1F910F91089574
:1015F00014964D915C91DA01A61BB70BBD016150A9
:101600007109DC0116964D915C91DA01AE1BBF0B9E
:10161000FD01E21BF30B77FDE8CFAF010E94BB0990
:10162000E4CF16964D915C91DA01A61BB70BBD0174
:1016300061507109CDCF0F931F93FA01DC015696CB
:101640004C9156974230A9F0433091F1413019F551
:1016500014964D915C91DA01AE1BBF0BFD013197E1
:10166000F7FD04C0AB01BF010E94BB091F910F91A0
:10167000089514964D915C91DA01A61BB70BBD013C
:10168000DC0116964D915C91DA01AE1BBF0BFD019A
:101690003197621B730BF7FDE9CFDC0116964D9174
:1016A0005C91E417F50714F7AF010E946A0ADECFD8
:1016B00016964D915C91DA01A61BB70BBD01621B1A
:1016C000730BCECFFC0177FD64C0808591856817D0
:1016D00079070CF05EC057FD5CC082859385481782
:1016E00059070CF056C086898230B1F0833029F159
:1016F000813041F484819581841B950BAB01BC0141
:10170000615071092130310509F108F443C02230DC
:10171000310509F463C0089584819581DC01A61B1D
:10172000B70BBD016150710986819781DC01A41B53
:10173000B50BAD0141505109E5CF86819781861BDC
:10174000970BBA01AC0141505109DCCFCA0157FDDA
:101750000796A3E095958795AA95E1F7A481B581B1
:101760008A9F90018B9F300D9A9F300D1124620F3C
:10177000731F078CF0A1E02DE60FF71F4770552768
:1017800021E030E001C0220F4A95EAF78081822BE8
:1017900080830895CA0157FD079633E09595879594
:1017A0003A95E1F7A481B5818A9F90018B9F300D16
:1017B0009A9F300D1124620F731F078CF0A1E02D4A
:1017C000E60FF71F4770552781E090E001C0880FB2
:1017D0004A95EAF7809590818923DACFCA0157FDAF
:1017E000079623E0959587952A95E1F7A481B58121
:1017F0008A9F90018B9F300D9A9F300D1124620FAC
:10180000731F078CF0A1E02DE60FF71F47705527D7
:1018100021E030E001C0220F4A95EAF7808182275B
:10182000B7CF08958EBD00000DB407FEFDCF8EB575
:1018300008958CBD9DBD08950895FC016370668B6D
:101840008481958126813781613039F0633029F0B8
:1018500091878087338722870895318720879387F0
:10186000828708952F923F924F925F926F927F925C
:101870008F929F92AF92BF92CF92DF92EF92FF92A0
:101880000F931F93CF93DF93CDB7DEB76A970FB651
:10189000F894DEBF0FBECDBF9A8F898F7A8369839C
:1018A0004A01D22E18870F833701BC2CDC015996D0
:1018B0002D913C915A972115310509F015C11896C3
:1018C0008D919C911997681779070CF0D7C11A96DA
:1018D0008D919C91481759070CF0D0C14C2C512C7C
:1018E000B6E0CB9E600D711D11247C876B871616A8
:1018F00017060CF0C3C1EA2DF0E0FA87E98793E000
:10190000EE0FFF1F9A95E1F7F88BEF87CF01840F59
:10191000951F181619060CF0B1C1A98DBA8D5896ED
:101920008C91811104C0BFEABD1508F4D394A98D30
:10193000BA8DED91FC9111970284F385E02DCD01D4
:101940000995B5E0DB9EC0011124E981FA81FC8391
:10195000EB83312C212C9C012D553F4F388F2F8B41
:101960004A2D50E05E8B4D8BEF89F88DE20DF31D13
:1019700044919E828D82D12CC12C69817A81620D25
:10198000731D7A8B698B842F90E09C8B8B8BE98DF8
:10199000FA8DA081B18140FF82C0F1E0BF126FC01B
:1019A000AF126DC01C96ED91FC912F813885A4017A
:1019B0004C0D5D1D69897A89898D9A8D0995EB8910
:1019C000FC89F595E7954E2F5FEFC51AD50A6D8115
:1019D0007E818D899E89680F791F7E836D8398E053
:1019E000C916D10481F6AFEF2A1A3A0AEB81FC81BD
:1019F000E40DF51DFC83EB83F5E02F16310409F0AF
:101A0000B3CF2F81388526153705B9F0A98DBA8D4A
:101A1000ED91FC91B1E0BB1257C0AB1255C069818A
:101A20007A816B5F7F4F0088F189E02D830128E088
:101A300030E0A401898D9A8D0995A98DBA8DED911B
:101A4000FC9111970688F789E02DCD016A960FB6B3
:101A5000F894DEBF0FBECDBFDF91CF911F910F91E4
:101A6000FF90EF90DF90CF90BF90AF909F908F90BE
:101A70007F906F905F904F903F902F9009941E96AB
:101A8000ED91FC91EF80F88409851A8592014D81D2
:101A90005E816B817C81898D9A8D099590CF2F8194
:101AA00038852615370509F48ACF31E0B31207C00F
:101AB000A31205C01C96ED91FC91930178CF1E9660
:101AC000ED91FC917301E0CF6B857C8564197509FC
:101AD0000684F785E02D73010F8518899201A40112
:101AE000898D9A8D0995A9CFF901349694913297F1
:101AF00045915491D91AB7E0DB9E400D511D112438
:101B0000F901259134913C8B2B8BFA01259034906F
:101B1000FA013296749031963491398B32966490F2
:101B20003196449041E04C1518F04A1508F07FC0FA
:101B3000662D062C000C770B7C836B83842D042C84
:101B4000000C990B9E838D83A98DBA8DED91FC912C
:101B500011970284F385E02DCD010995512CD12CEC
:101B6000C12CEA2DF0E0FA87E9872B2D30E03C8785
:101B70002B87A401440D511D47FC5A95588F4F8B5C
:101B800069817A81660D711D67FC7A957E876D8704
:101B90007989C71608F051CF2C2D30E04D815E8138
:101BA000420F531FA985BA854A9FC0014B9F900DD4
:101BB0005A9F900D1124FC01E80DF91DF88BEF8759
:101BC000852D612C4F89588D420F531F5E8B4D8B95
:101BD000671408F050C044244394480E877041F4C1
:101BE000C1010196EB89FC89E20DF31DD4901C0123
:101BF000D7FE19C0A98DBA8DED91FC91662D70E0CC
:101C0000B1E0BB1219C0AB1217C02D853E85620F23
:101C1000731F0484F585E02D2F8138854D895E89F9
:101C2000898D9A8D0995DD0C6394842DD1CF1E8208
:101C30001D821C821B8288CF4B815C81640F751FC3
:101C4000AB85BC856A9FC0016B9F900D7A9F900DFC
:101C5000112469817A81680F791F0684F785E02D48
:101C6000EF80F88409851A859D014F855889898DF3
:101C70009A8D0995D8CF570CC3948ACF6A960FB620
:101C8000F894DEBF0FBECDBFDF91CF911F910F91B2
:101C9000FF90EF90DF90CF90BF90AF909F908F908C
:101CA0007F906F905F904F903F902F9008958F920C
:101CB0009F92AF92CF92EF92FF920F931F93CF9389
:101CC000DF93EC01262F898D9A8D009709F051C082
:101CD0006A30D1F41D861C868D8948E0849F90016E
:101CE00011248E859F85820F931F9F878E8781E0A9
:101CF00090E0DF91CF911F910F91FF90EF90CF90E7
:101D0000AF909F908F9008956D3089F3CC88AD8807
:101D10008F898823C1F08C859D8536E0C39E800D18
:101D2000911D1124488559854817590764F44E853B
:101D30005F851D861C8638E0A39EC0011124840F98
:101D4000951F9F878E87EA88FB88088919894E85A9
:101D50005F856C857D85CE010E94320C2C898C8537
:101D60009D8546E0249F800D911D11249D878C87C1
:101D7000BECF6A3069F41D861C86FC013896E4915A
:101D80002D898E859F85E29F800D911D1124ADCFF9
:101D90006D3009F4ACCFFC0134963491631708F42C
:101DA000A6CF3296E491E61708F4A1CFFC01329653
:101DB00085909490462F431B342F47E0349F800C2E
:101DC000911C1124F401329634913196E49133231D
:101DD000A9F1EE2399F1CC88F4013596E491AD8810
:101DE0004F89442301F10E2E000CFF0BE30FF11D70
:101DF000CE9EA001CF9E500D11246C857D85460F8F
:101E0000571F68857985641775076CF44E855F8563
:101E10001D861C86FC013896E491AE9E400D511D36
:101E200011245F874E87EA88FB88088919894E85C7
:101E30005F856C857D85CE010E94320CF40134965D
:101E4000E4912C898C859D85E29F800D911D112444
:101E50008DCF6F927F928F929F92AF92BF92CF92CF
:101E6000DF92EF92FF920F931F93CF93DF93EC01DA
:101E70006B015A0139014801E881F9810284F38537
:101E8000E02D0995E881F9810288F389E02D870129
:101E90009301A501B601CE010995A501480D591D73
:101EA00041505109E881F9810288F389E02D9301BD
:101EB000B601CE010995E881F9810088F189E02D0C
:101EC0009401A501B601CE010995C60CD71CB60137
:101ED00061507109E881F9810088F189E02D940150
:101EE000A501CE010995E881F9810688F789E02DE1
:101EF000CE01DF91CF911F910F91FF90EF90DF9076
:101F0000CF90BF90AF909F908F907F906F900994EB
:101F10006F927F928F929F92AF92BF92CF92DF92F9
:101F2000EF92FF920F931F93CF93DF935C01EB012E
:101F30006A01490138018701DC01ED91FC916217CA
:101F4000730719F5641675062CF0962D872D3A0146
:101F5000C92ED82E9601261937092F5F3F4F048CC2
:101F6000F58DE02DA301BE01C5010995DF91CF914B
:101F70001F910F91FF90EF90DF90CF90BF90AF90A7
:101F80009F908F907F906F9008954615570591F41C
:101F90002617370724F0892D4B01C22FD82F9E0119
:101FA000281939092F5F3F4F068CF78DE02DA601C8
:101FB000B401DACF0284F385E02D0995D501ED91C6
:101FC000FC910488F589E02D83019401A601BE01EE
:101FD000C5010995D501ED91FC910688F789E02DA1
:101FE000C501DF91CF911F910F91FF90EF90DF908E
:101FF000CF90BF90AF909F908F907F906F900994FB
:10200000EF92FF920F931F93DC011A960D911C9192
:102010001B9718962D913C911997ED91FC9100A07A
:10202000F1A1E02D7B0150E040E070E060E0099517
:102030001F910F91FF90EF9008954F925F926F92D2
:102040007F928F929F92AF92BF92CF92DF92EF9248
:10205000FF920F931F93CF93DF936C012B015A01D3
:1020600039014801DC01ED91FC910284F385E02DFA
:102070000995E201640C751CD601ED91FC91C61521
:10208000D7055CF40088F189E02D87019401A50152
:10209000BE01C60109952196EFCF0688F789E02D8C
:1020A000C601DF91CF911F910F91FF90EF90DF90CC
:1020B000CF90BF90AF909F908F907F906F905F90E8
:1020C0004F9009948F929F92AF92BF92CF92DF92DE
:1020D000EF92FF920F931F93CF93DF93EC015B017D
:1020E0004A016901E881F9810284F385E02D0995AF
:1020F00095012C0D3D1D21503109E881F98104889D
:10210000F589E02D78018401A401B501CE0109957E
:10211000E881F9810688F789E02DCE01DF91CF9122
:102120001F910F91FF90EF90DF90CF90BF90AF90F5
:102130009F908F9009948F929F92AF92BF92CF926F
:10214000DF92EF92FF920F931F93CF93DF93EC01F7
:102150005B014A0169017801E881F9810284F38514
:10216000E02D0995C80CD91C860101501109E881A0
:10217000F9810488F589E02D9501A401B501CE010E
:102180000995E881F9810688F789E02DCE01DF9174
:10219000CF911F910F91FF90EF90DF90CF90BF9064
:1021A000AF909F908F9009940895EF92FF920F93B4
:1021B0001F93DC01ED91FC9100A0F1A1E02D0995A8
:1021C0001F910F91FF90EF9008950F931F93DC01E3
:1021D000ED91FC91068CF78DE02D09951F910F91E3
:1021E00008950F931F93DC01ED91FC91048CF58D04
:1021F000E02D09951F910F910895DC01ED91FC915F
:102200000084F185E02D09942F923F924F925F92C6
:102210006F927F928F929F92AF92BF92CF92DF92F6
:10222000EF92FF920F931F93CF93DF9300D000D0D4
:1022300000D0CDB7DEB73C016A013E832D83FC821E
:10224000EB825801A41AB50AB7FE03C0B194A19459
:10225000B1088D809E80861A970A97FE03C09194DC
:10226000819491088A149B045CF0902F812F0D813A
:102270001E819D838E839C2D8D2D6B01692F782F60
:102280000C151D055CF09D818E817E836D83692F09
:10229000782F902F812F8601C92ED82E1601201A53
:1022A000310A2B012D813E81421A530A57FE03C089
:1022B000519441945108710137FE03C03FEFE31A76
:1022C000F30AF594E7948D819E81861797075CF554
:1022D000A1E0B0E0BA83A983C016D1064CF1D301C6
:1022E000ED91FC910484F585E02D2B813C81A801C2
:1022F0006D817E818A149B041CF04D815E81B80142
:10230000C3010995E418F508F7FE0AC02D813E8146
:1023100089819A81280F391F3E832D83E20CF31C9B
:102320000F5F1F4FD9CF2FEF3FEF3A832983D4CFD1
:1023300026960FB6F894DEBF0FBECDBFDF91CF91CA
:102340001F910F91FF90EF90DF90CF90BF90AF90D3
:102350009F908F907F906F905F904F903F902F90C5
:10236000089520919E02260F3327331F2132310515
:10237000ECF42091C202FC0190E080E0243069F08E
:1023800082E00895A0919E022191AC0142585D4FD8
:10239000A40FB52FB11D2C930196861798F3809149
:1023A0009E02680F60939E0280E0089581E0089588
:1023B0001092C20281E08093C4021092C30261E0D5
:1023C00082E10E94D40661E083E10E94D406E9EB39
:1023D000F0E080818E7F808380818D7F808388E4A0
:1023E0008093B80085E48093BC000895CF93DF9379
:1023F00091E090937D028823B9F0C091B800D0910C
:10240000BA008091BC008A7B8093BC0060E082E1CE
:102410000E94D40660E083E10E94D4060E94D81195
:10242000D093BA00C093B800DF91CF910895E091A6
:10243000F1028091F002E81730F4F0E0E85AFD4F25
:10244000808190E008958FEF9FEF08959091F102C1
:102450008091F0022FEF3FEF981748F4E92FF0E05A
:10246000E85AFD4F208130E09F5F9093F102C9014F
:1024700008958091F0029091F102891B990B0895C3
:10248000CF92DF92EF92FF920F931F93CF93DF9340
:102490007C01CB018A0120910403222389F0EB0106
:1024A0006B01C40ED51ECC15DD0569F06991D7010D
:1024B000ED91FC910190F081E02DC7010995F3CFDA
:1024C000642F0E94B111C801DF91CF911F910F912C
:1024D000FF90EF90DF90CF900895CF93DF931F92FE
:1024E000CDB7DEB76983209104032223F9F0209150
:1024F0000103203258F021E030E0FC0133832283D5
:1025000090E080E00F90DF91CF91089580910203D9
:10251000E82FF0E0E85CFD4F998190838F5F809316
:1025200002038093010381E090E0ECCF61E0CE01F3
:1025300001960E94B111F7CFCF92DF92EF92FF92F6
:102540000F931F93CF93DF93D091010381E0D1329A
:1025500008F09CC0C09103030E9438076B017C0106
:102560008091C20281116CC082E08093C20281E03E
:102570008093C4028FEF8093C1021092E602D09341
:10258000E502A8E3B2E0E5ECF2E080E0D8138DC00C
:102590001092E7028091E702CC0FC82BC093E702AC
:1025A0008091C302813009F084C01092C3020E945E
:1025B00038076B017C018091E7028093BB0080911A
:1025C000790290917A02A0917B02B0917C02892BD2
:1025D0008A2B8B2BA1F00E94380700917902109171
:1025E0007A0220917B0230917C026C197D098E0960
:1025F0009F09061717072807390708F442C080917A
:10260000BC0083FDD8CF85EC8093BC000E943807C6
:102610006B017C018091C202823009F44CC0809130
:10262000C1028F3F09F469C08091C102803209F470
:1026300066C08091C102803309F463C084E026C083
:102640008091790290917A02A0917B02B0917C02F4
:10265000892B8A2B8B2B09F483CF0E94380700919A
:10266000790210917A0220917B0230917C026C19E0
:102670007D098E099F09061717072807390708F0F3
:102680006FCF809178020E94F61185E010920203CC
:102690001092010310920403DF91CF911F910F91CB
:1026A000FF90EF90DF90CF9008959D9191938F5F71
:1026B0006DCF85EEA9CF8091790290917A02A09199
:1026C0007B02B0917C02892B8A2B8B2B09F4A2CF41
:1026D0000E9438070091790210917A0220917B02C2
:1026E00030917C026C197D098E099F090617170726
:1026F0002807390708F08ECFC4CF80E0C7CF82E02B
:10270000C5CF83E0C3CFCF92DF92EF92FF920F93BA
:102710001F93CF93DF93EC016B01142F8D8D9E8D52
:10272000009709F454C029A131E0309304032093A9
:1027300003031092020310920103DC01ED91FC915E
:102740000190F081E02D60E009957601CC24C394DE
:10275000D12C01E011508D8D9E8D1F3F71F1B0E2A3
:10276000CB16D104C0F00E949C128D8D9E8D29A1A4
:1027700000930403209303031092020310920103B9
:10278000DC01ED91FC910190F081E02D60E0099574
:10279000CC24C394D12C8D8D9E8DF7016491DC01E6
:1027A000ED91FC910190F081E02D0995BFEFCB1ADE
:1027B000DB0AEFEFEE1AFE0ACDCFDF91CF911F912A
:1027C0000F91FF90EF90DF90CF900C949C12EDA5AD
:1027D000FEA590818BA98095892380837B01115070
:1027E00070F1F70184912B8D3C8D232B31F00E94E9
:1027F000120CFFEFEF1AFF0AF2CF28E030E040E8BA
:10280000E9A5FAA599A9582F5423A9F05081952B31
:102810009083EBA5FCA590815AA9952B9083EBA5FD
:10282000FCA550819AA990959523908346952150B7
:10283000310931F7DECF508190959523E9CFDF91B3
:10284000CF911F910F91FF90EF90DF90CF9008955F
:102850001F93CF93DF93EC018D8D9E8D009721F117
:10286000162F29A131E03093040320930303109223
:10287000020310920103DC01ED91FC910190F081C3
:10288000E02D60E009958D8D9E8DDC01ED91FC9130
:102890000190F081E02D612F09958D8D9E8DDF9146
:1028A000CF911F910C949C12ADA5BEA59C918BA9B4
:1028B000809589238C938B8D9C8D892B31F0862F6D
:1028C000DF91CF911F910C94120C28E030E080E84A
:1028D000A9A5BAA599A9462F4823C1F04C91942BDC
:1028E0009C93ABA5BCA59C914AA9942B9C93ABA5AA
:1028F000BCA54C919AA9909594239C9386952150C0
:10290000310931F7DF91CF911F9108954C91909546
:102910009423E6CF1F93CF93DF93EC01162F8D8D79
:102920009E8D892BB1F12DA93EA94FA958AD60E02C
:1029300074E284EF90E00E94BD2A205131094109E0
:10294000510956954795379527952093B80066EA23
:10295000111167EACE010E9428148D8D9E8D892B5E
:1029600041F129AD3AAD4BAD5CAD60E074E284EF6E
:1029700090E00E94BD2A2051310941095109569524
:102980004795379527952093B800DF91CF911F91F8
:1029900008958B8D9C8D892B21F08EAD9FAD0E946B
:1029A000190CEFA5F8A990818CA9809589238083C3
:1029B000CECFEFA5F8A980819CA9892B8083E5CF94
:1029C00090E080E00895CF93DF93EC0188819981B6
:1029D000009711F00E94932B198218821D821C828D
:1029E0001B821A82DF91CF910895FC018081918131
:1029F000009711F00C94932B08952091620430916C
:102A00006304DC0114964D915C91159724173507EA
:102A1000D9F4E0915E04F0915F046D917C91309760
:102A2000D1F06115710599F4232BC1F0808190E0FC
:102A300008C0232B99F0FB01808190E0919581954E
:102A4000910921E0892B09F020E0822F0895CF0120
:102A50000E94EE2CF6CF6115710559F721E0F5CFF4
:102A6000FB0101900020E9F73197AF01461B570B9E
:102A7000DC01ED91FC910280F381E02D09940F932C
:102A80001F93CF93DF93EC01FB014481558160815B
:102A90007181E881F9810280F381E02D09958C0133
:102AA0006DED71E0CE010E943015800F911FDF9116
:102AB000CF911F910F910895BF92CF92DF92EF9225
:102AC000FF920F931F93CF93DF93BC018091220459
:102AD000909123040E943F15C0912204D0912304B9
:102AE0008D8D9E8D892B09F484C02DA93EA94FA9F7
:102AF00058AD60E074E284EF90E00E94BD2A20515E
:102B000031094109510956954795379527952093E5
:102B1000B80045E06FEB7AE0CE010E9483136C8130
:102B20006150CE010E9428142E813F81C901079671
:102B300097FD079633E0959587953A95E1F72C81B7
:102B40003D81829F7001839FF00C929FF00C1124B5
:102B50000F8D18A18D8D9E8DE00EF11E009709F44A
:102B60007DC029A131E03093040320930303109228
:102B7000020310920103DC01ED91FC910190F081C0
:102B8000E02D60E40995CC24C394D12CBB24B394EC
:102B90008D8D9E8DE016F106E1F1B0E2CB16D104E9
:102BA000C0F00E949C128D8D9E8D29A1B0920403CD
:102BB000209303031092020310920103DC01ED91B4
:102BC000FC910190F081E02D60E40995CC24C39440
:102BD000D12C8D8D9E8DF80161918F01DC01ED91DD
:102BE000FC910190F081E02D0995BFEFCB1ADB0A33
:102BF000CFCF8B8D9C8D892B21F08EAD9FAD0E9408
:102C0000190CEFA5F8A990818CA980958923808360
:102C100080CF0E949C128D8D9E8D892B09F453C00C
:102C200029AD3AAD4BAD5CAD60E074E284EF90E06D
:102C30000E94BD2A205131094109510956954795F5
:102C4000379527952093B800DF91CF911F910F9171
:102C5000FF90EF90DF90CF90BF900895EDA5FEA577
:102C600080819BA9892B8083E016F106A1F2F801EF
:102C700081918F012B8D3C8D232B19F00E94120C1A
:102C8000F3CF28E030E040E8E9A5FAA599A9582F4C
:102C90005423A9F05081952B9083EBA5FCA590813E
:102CA0005AA9952B9083EBA5FCA550819AA99095E4
:102CB0009523908346952150310931F7D5CF508126
:102CC00090959523E9CFEFA5F8A980819CA9892B40
:102CD0008083BACF0E94D92CFC018081918100971A
:102CE00011F00C948F2660E070E0CB0108950F93F3
:102CF0001F93CF93DF93EC0188819981009759F05E
:102D00002A813B812617370730F081E0DF91CF9190
:102D10001F910F9108958B016F5F7F4F0E941C2CB4
:102D2000009759F0998388831B830A832C813D8106
:102D3000232B59F7FC011082E8CF80E0E7CFEF9218
:102D4000FF920F931F93CF93DF936115710541F4A9
:102D500080E0DF91CF911F910F91FF90EF90089548
:102D600041155105B1F07B01EC010C811D81040F6F
:102D7000151FB8010E947716882351F328813981E5
:102D80008C819D81B701820F931F0E94F72C1D83B8
:102D90000C8381E0DECFCF93DF93EC01FB01019048
:102DA0000020E9F73197AF01461B570B0E949F1691
:102DB000811103C0CE010E94E314CE01DF91CF91B7
:102DC0000895CF93DF93EC01FB014481558160812D
:102DD00071810E949F16811103C0CE010E94E314ED
:102DE000CE01DF91CF910895CF93DF9300D0CDB77F
:102DF000DEB769831A8241E050E0BE016F5F7F4F0A
:102E00000E949F160F900F90DF91CF910895EF923F
:102E1000FF920F931F93CF93DF93EC017B018A0105
:102E2000BA010E94771681110BC0CE010E94E314F3
:102E3000CE01DF91CF911F910F91FF90EF900895F8
:102E40001D830C83B701888199810E94F72CF0CFF4
:102E5000EF92FF920F931F93CF93DF93CDB7DEB71F
:102E600029970FB6F894DEBF0FBECDBF8C01862F19
:102E7000F8011182108213821282158214824AE0B4
:102E80009E012F5F3F4F7901B90190E00E94CB2650
:102E9000F70101900020E9F73197AF014E195F0962
:102EA000B701C8010E94071729960FB6F894DEBF34
:102EB0000FBECDBFDF91CF911F910F91FF90EF908B
:102EC0000895CF93DF9300D0CDB7DEB7FC01118218
:102ED0001082138212821582148269831A82BE01C3
:102EE0006F5F7F4FFB0101900020E9F73197AF0141
:102EF000461B570B0E9407170F900F90DF91CF9141
:102F00000895FB01DC0111961C921E9213961C92EF
:102F10001E92129715961C921E9214978617970769
:102F200049F0608171816115710521F044815581FD
:102F30000C9407170895FC011182108213821282EB
:102F4000158214826115710551F0FB01019000207A
:102F5000E9F73197AF01461B570B0C9407170895FB
:102F6000BF92CF92DF92EF92FF920F931F93CF9376
:102F7000DF9300D000D000D0CDB7DEB77C016B016D
:102F8000809139044817B0F069E871E0C7010E94E8
:102F90009B17C70126960FB6F894DEBF0FBECDBFB4
:102FA000DF91CF911F910F91FF90EF90DF90CF9025
:102FB000BF900895E42FF0E0E05DFB4F0185B284FF
:102FC0006FED71E0CE0101960E949B170F5F10E03C
:102FD0000B1568F4B801C6010E945B08FC01608112
:102FE000CE0101960E94F4160F5F1F4FF1CF898129
:102FF0009A81F701918380838B819C819383828363
:103000008D819E81958384831A8219821C821B8202
:103010001E821D82CE0101960E94F514BACF4F92F6
:103020005F926F927F928F929F92AF92BF92CF9258
:10303000DF92EF92FF920F931F93CF93DF93CDB761
:10304000DEB7EC970FB6F894DEBF0FBECDBF8C0194
:10305000BC01CE0107960E94811780915A0490917D
:103060005B048F5D9140F1F53DE1A32E31E0B32E7D
:10307000F12CE12CF50160817181CE0101960E9455
:103080009B174D815E818B859C858417950778F011
:103090008F819885009759F069817A816115710552
:1030A00031F00E94FE2CDD24D394892B09F0D12C21
:1030B000CE0101960E94F514DD2009F4BFC0F7018E
:1030C000EE0FFF1FEE0FFF1FE35EFE4F8081918129
:1030D000A281B38180935A0490935B04A0935C0413
:1030E000B0935D04CE0107960E94F514B801CE019D
:1030F00085960E948117BE016B5D7F4FCE01499678
:103100000E94811764E070E0CE0149960E945B083E
:10311000FC016081CE0143960E94611763E070E07C
:10312000CE0149960E945B08FC016081CE010D969C
:103130000E94611762E070E0CE0149960E945B0830
:10314000FC016081CE0101960E946117BE016F5F94
:103150007F4FCE0107960E948117BE01635F7F4FAC
:10316000CE0107960E94E116BE016D5E7F4F0E9460
:10317000E116BC01CE014F960E948117CE01079641
:103180000E94F514CE0101960E94F514CE010D9611
:103190000E94F514CE0143960E94F51480915E04BE
:1031A00090915F04009709F457C06F8D78A1611565
:1031B000710509F44FC040916004509161042BA146
:1031C0003CA14217530708F445C00E94F72C8BA17D
:1031D0009CA190936304809362041CA21BA2CE0165
:1031E0004F960E94F514CE0149960E94F514CE0127
:1031F00085960E94F514B801CE0101960E948117B0
:103200006D817E8149815A81A091310490E080E0F6
:10321000292F30E026173707C0F54115510599F1E0
:10322000240F351FF9012081A21306C0E82FF0E01A
:10323000E05DFB4F92878F5F9F5FEACFFFEFEF1A52
:10324000FF0A24E0A20EB11C85E0E816F10409F0A3
:1032500011CF48CF0E94932B8F8D98A190935F043C
:1032600080935E0489A19AA1909361048093600485
:103270008BA19CA1909363048093620418A21F8E7B
:103280001AA219A2AACF20E0CFCF80933904CE0191
:1032900001960E94F5148EEF93E00E94FD1488239E
:1032A00009F415C1B801CE0149960E94811741E089
:1032B000BE01675E7F4FCE0143960E94B0178F8993
:1032C000988D069708F4A2C061E070E0CE014396A5
:1032D0000E945B08FC016081CE0101960E9461178B
:1032E00070E060E0CE0143960E945B08FC016081C3
:1032F000CE010D960E946117BE01635F7F4FCE0124
:1033000007960E948117BE016F5F7F4FCE0107961F
:103310000E94E1160E946C1660937304CE0107961A
:103320000E94F514CE010D960E94F514CE0101966F
:103330000E94F51463E070E0CE0143960E945B08A2
:10334000FC016081CE0101960E94611762E070E08D
:10335000CE0143960E945B08FC016081CE010D9670
:103360000E946117BE01635F7F4FCE0107960E94E6
:103370008117BE016F5F7F4FCE0107960E94E11655
:103380000E946C1660937404CE0107960E94F51497
:10339000CE010D960E94F514CE0101960E94F514FF
:1033A00065E070E0CE0143960E945B08FC016081FD
:1033B000CE0101960E94611764E070E0CE01439651
:1033C0000E945B08FC016081CE010D960E9461178E
:1033D000BE01635F7F4FCE0107960E948117BE0139
:1033E0006F5F7F4FCE0107960E94E1160E946C1618
:1033F00060937504CE0107960E94F514CE010D96D8
:103400000E94F514CE0101960E94F514CE01439658
:103410000E94F514CE0149960E94F514B801CE0120
:1034200007960E94811747E0BE01695F7F4FCE017A
:1034300001960E94B017CE0101960E946C1660930F
:103440006404CE0101960E94F514CE0107960E94F5
:10345000F514B801CE0107960E94811749E0BE011C
:10346000695F7F4FCE0101960E94B01789819A81D2
:10347000009749F10E948B2660936F04709370044B
:103480008093710490937204CE0101960E94F5140A
:10349000CE0107960E94F514EC960FB6F894DEBFA5
:1034A0000FBECDBFDF91CF911F910F91FF90EF9095
:1034B000DF90CF90BF90AF909F908F907F906F9054
:1034C0005F904F90089560E070E0CB01D5CF84E02D
:1034D00094E00E94FD148111DFCF8AE094E00E9405
:1034E000FD148111D9CF80E194E00E94FD14811177
:1034F000D3CF86E194E00E94FD14882369F2B801DD
:10350000CE0107960E94811744E0BE01695F7F4F9C
:10351000CE0101960E94B01770E060E0CE010196E6
:103520000E945B08FC01F080CE0101960E94F51418
:10353000CE0107960E94F514B801CE0107960E94AD
:10354000811746E0BE01695F7F4FCE0101960E9460
:10355000B01770E060E0CE0101960E945B08FC01AC
:10356000E080CE0101960E94F514CE0107960E94DC
:10357000F514E0926E04F0926D04B801CE010D9640
:103580000E94811743E0BE01635F7F4FCE01079623
:103590000E94B01770E060E0CE0107960E945B08C1
:1035A000FC016081CE0101960E946117CE01019657
:1035B0000E946C164B015C01B801CE014F960E942F
:1035C000811743E0BE01615E7F4FCE0149960E94A4
:1035D000B01761E070E0CE0149960E945B08FC01E3
:1035E0006081CE0143960E946117CE0143960E94EE
:1035F0006C162B013C01AAE0B0E0A50194010E94E9
:103600008D290E946D284B015C01C301B2010E940B
:103610006D289B01AC01C501B4010E94DF294B015B
:103620005C01CE0143960E94F514CE0149960E949A
:10363000F514CE014F960E94F514CE0101960E941A
:10364000F514CE0107960E94F514CE010D960E9446
:10365000F5146FED71E0CE01C7960E949B1792E0C2
:10366000C92ED12CB801CE0107960E94811743E0E4
:10367000BE01695F7F4FCE0101960E94B017B6016F
:10368000CE0101960E945B08FC016081CE01C796C5
:103690000E94F416CE0101960E94F514CE01079601
:1036A0000E94F514FFEFCF1ADF0A2AE0C216D104F8
:1036B000C9F68FA998AD009709F4F2C10E948B2634
:1036C00020E030E040E752E40E944B2AA50194013B
:1036D0000E94DF29609365047093660480936704F9
:1036E00090936804B801CE010D960E94811745E0C1
:1036F000BE01635F7F4FCE0107960E94B01770E056
:1037000060E0CE0107960E945B08FC016081CE015B
:1037100001960E946117CE0101960E946C164B0122
:10372000B801CE014F960E94811745E0BE01615E4F
:103730007F4FCE0149960E94B01761E070E0CE0144
:1037400049960E945B08FC016081CE0143960E946D
:103750006117CE0143960E946C1624E6289D6001F5
:10376000299DD00C11242AE0269FA001279F500DEF
:103770001124C40ED51EB801CE01C1960E94811736
:1037800045E0BE016F5C7F4FCE018B960E94B01763
:1037900062E070E0CE018B960E945B08FC016081C4
:1037A000CE0185960E946117CE0185960E946C1607
:1037B0006C0D7D1D072E000C880B990B0E946D2847
:1037C0004B015C01CE0185960E94F514CE018B96CB
:1037D0000E94F514CE01C1960E94F514CE014396C5
:1037E0000E94F514CE0149960E94F514CE014F9621
:1037F0000E94F514CE0101960E94F514CE010796A1
:103800000E94F514CE010D960E94F5146FED71E043
:10381000CE014F960E949B1783E0C82ED12CB80191
:10382000CE0107960E94811745E0BE01695F7F4F78
:10383000CE0101960E94B017B601CE0101960E94FA
:103840005B08FC016081CE014F960E94F416CE0108
:1038500001960E94F514CE0107960E94F514FFEF21
:10386000CF1ADF0A2BE0C216D104C9F68F8D98A1BA
:10387000009709F419C10E948B2620E030E040E750
:1038800052E40E944B2AA50194010E94DF29609313
:10389000690470936A0480936B0490936C04B8017C
:1038A000CE0149960E94811749E0BE01675E7F4FB5
:1038B000CE0143960E94B0178F89988D069708F421
:1038C000A2C061E070E0CE0143960E945B08FC015B
:1038D0006081CE0101960E94611770E060E0CE0128
:1038E00043960E945B08FC016081CE010D960E9408
:1038F0006117BE01635F7F4FCE0107960E9481175B
:10390000BE016F5F7F4FCE0107960E94E1160E94B5
:103910006C1660937604CE0107960E94F514CE01D2
:103920000D960E94F514CE0101960E94F51463E0F5
:1039300070E0CE0143960E945B08FC016081CE01DD
:1039400001960E94611762E070E0CE0143960E94EA
:103950005B08FC016081CE010D960E946117BE01DB
:10396000635F7F4FCE0107960E948117BE016F5F94
:103970007F4FCE0107960E94E1160E946C1660935D
:103980007704CE0107960E94F514CE010D960E9491
:10399000F514CE0101960E94F51465E070E0CE01A9
:1039A00043960E945B08FC016081CE0101960E9453
:1039B000611764E070E0CE0143960E945B08FC0151
:1039C0006081CE010D960E946117BE01635F7F4F3B
:1039D000CE0107960E948117BE016F5F7F4FCE0117
:1039E00007960E94E1160E946C1660937804CE013F
:1039F00007960E94F514CE010D960E94F514CE0193
:103A000001960E94F514CE0143960E94F514CE0152
:103A100049960E94F5146091690470916A0480913E
:103A20006B0490916C04F7E5EF1201C0905860931D
:103A3000690470936A0480936B0490936C04809083
:103A4000650490906604A0906704B090680423E534
:103A5000F21204C0B7FAB094B7F8B094809265043B
:103A600090926604A0926704B092680420E030E06F
:103A7000A9010E946628811109C020E030E0A90157
:103A8000C501B4010E946628882319F081E0809363
:103A90007904CE014F960E94F514CE01C796FACC58
:103AA00060E070E0CB010CCE60E070E0CB01E5CED1
:103AB0000F931F93CF93DF93CDB7DEB72C970FB63D
:103AC000F894DEBF0FBECDBF85E093E00E940C09E5
:103AD000892BD1F385E093E00E940C09892B09F42E
:103AE00047C085E093E00E94AA08909130049813A3
:103AF000F1CF6FED71E0CE0107960E949B170E94F7
:103B0000BE0897FD09C08A30910531F0682FCE01BB
:103B100007960E94F416F3CF10E001E0612F70E0E9
:103B20008B859C856817790768F4CE0107960E94FB
:103B30005B08FC01908180913204981301C000E081
:103B40001F5FECCF01110FC0BE01695F7F4FCE0137
:103B500001960E948117CE0101960E940F18CE0196
:103B600001960E94F514CE0107960E94F514B2CF7B
:103B700081E02C960FB6F894DEBF0FBECDBFDF916B
:103B8000CF911F910F910895FC01868197819C012F
:103B9000295F3F4F37FF02C0295F3F4F83E03595D4
:103BA00027958A95E1F784819581289FA001299F17
:103BB000500D389F500D112470E060E0878D90A16A
:103BC0000C94E72C85ED8093BC0080917902909154
:103BD0007A02A0917B02B0917C020796A11DB11DD3
:103BE00023E0B695A795979587952A95D1F72091CB
:103BF000BC0024FD03C01092C202089540917902D6
:103C000050917A0260917B0270917C02452B462B89
:103C1000472B69F30097A105B10541F02AE22A95E7
:103C2000F1F700C00197A109B109E1CF80917802B5
:103C30000C94F6111F920F920FB60F9211242F932E
:103C40003F938F939F93AF93BF938091FD02909189
:103C5000FE02A091FF02B09100033091F80223E030
:103C6000230F2D3758F50196A11DB11D2093F802A1
:103C70008093FD029093FE02A093FF02B093000395
:103C80008091F9029091FA02A091FB02B091FC029E
:103C90000196A11DB11D8093F9029093FA02A093A1
:103CA000FB02B093FC02BF91AF919F918F913F9126
:103CB0002F910F900FBE0F901F90189526E8230F9D
:103CC0000296A11DB11DD2CF1F920F920FB60F9277
:103CD00011242F933F934F935F936F937F938F9311
:103CE0009F93AF93BF93EF93FF9385E093E00E9480
:103CF0002C09FF91EF91BF91AF919F918F917F918F
:103D00006F915F914F913F912F910F900FBE0F9048
:103D10001F9018951F920F920FB60F9211242F9398
:103D20008F939F93EF93FF93E0911503F091160308
:103D30008081E0911B03F0911C0382FD1BC09081E8
:103D400080911E038F5F8F7320911F03821741F0B4
:103D5000E0911E03F0E0EB5FFC4F958F80931E0314
:103D6000FF91EF919F918F912F910F900FBE0F9028
:103D70001F9018958081F4CF1F920F920FB60F926B
:103D800011240F900FBE0F901F9018951F920F9245
:103D90000FB60F9211242F933F934F935F936F931E
:103DA0007F938F939F93AF93BF93EF93FF938091F4
:103DB000B900887F803609F44AC0F0F5883209F4EA
:103DC000A7C018F5803109F49BC0B8F4882309F422
:103DD000F9C0883009F494C0FF91EF91BF91AF9181
:103DE0009F918F917F916F915F914F913F912F9113
:103DF0000F900FBE0F901F901895883109F488C05E
:103E0000803251F78093C10214C0803409F49DC000
:103E100040F48033B9F38833F9F68093C10285EC1E
:103E2000B0C0803509F485C0883509F496C088345F
:103E300099F60E94E21DD0CF883909F48CC038F57C
:103E4000883729F050F4883611F0803729F683E05E
:103E50008093C2021092C00257C0883809F47BC018
:103E6000803919F0803809F0B7CF8091C0028032D4
:103E700008F071C0E091C00281E08E0F8093C00213
:103E80008091BB00F0E0E056FD4F80833DC0803B59
:103E900039F0E0F4803A09F479C0883A09F09CCF0F
:103EA00084E08093C20210929F0210929E02E091E1
:103EB000EE02F091EF02099580919E0281110FC0F0
:103EC00081E080939E0210927E0209C0803C09F43A
:103ED000A6CF883C09F4A3CF883B09F07DCFE091C1
:103EE0009F0281E08E0F80939F02F0E0E258FD4F29
:103EF00080818093BB0090919F0280919E0229C097
:103F00008091E7028093BB0085EC8093BC0064CF76
:103F10009091E6028091E502981758F5E091E6024B
:103F200081E08E0F8093E602F0E0EB53FD4F80813D
:103F3000E9CFE091E60281E08E0F8093E602809166
:103F4000BB00F0E0EB53FD4F80839091E60280913F
:103F5000E5029817C8F285E8D8CFE091E60281E043
:103F60008E0F8093E6028091BB00F0E0EB53FD4F93
:103F700080838091C40281115CCF81E08093C30271
:103F800084EA8093BC001092C20226CF85EC809315
:103F9000BC001092C2028091C002803230F4E091E5
:103FA000C002F0E0E056FD4F10826091C00270E068
:103FB000E091EC02F091ED0280EA92E00995109216
:103FC000C0020ACF1092C10234CFCF93DF93C2E276
:103FD000D4E02697CE010E94F51483E0CE3FD807A7
:103FE000C1F78EE594E00E94F51483E394E0DF913D
:103FF000CF910C94F514AF92BF92CF92DF92EF92D3
:10400000FF920F931F93CF93DF93CDB7DEB728971F
:104010000FB6F894DEBF0FBECDBFE5E0F3E013822C
:10402000128288EE93E0A0E0B0E084839583A683BB
:10403000B78325E331E03183208325EC30E03587F9
:10404000248724EC30E03787268720EC30E0318B62
:10405000208B21EC30E0338B228B22EC30E0358B4F
:10406000248B26EC30E0378B268B118E128E138E2C
:10407000148E22EAC22E23E0D22EF601138212827F
:1040800084839583A683B78387E491E091838083BB
:104090000BEC13E0D80114961C92149780EB94E07B
:1040A0005C969C938E935B975E961C921E925D9796
:1040B00080E092E090969C938E935F9780E090E0F2
:1040C000A0E2B1E4F80181A392A3A3A3B4A380E08A
:1040D00090E0A0EAB2E485A396A3A7A3B0A780E0EE
:1040E00090E0A1E9B3E481A792A7A3A7B4A716A67D
:1040F00015A689E081838AE0828388E0838380E15A
:10410000808361E089E00E94070761E0D801129690
:104110008C910E94070761E0F80183810E940707E4
:1041200060E0D8018C910E940707F80185A196A153
:10413000A7A1B0A581879287A387B48781A592A5FF
:10414000A3A5B4A585879687A787B08B88EC90E058
:10415000968385838CE590E0908787830E94020791
:1041600002E214E030E8A32EB12CD8011396BC92E1
:10417000AE92129740E2E42EF12C1596FC92EE924C
:1041800014978CE316968C93169717961C9280E4DE
:1041900090E00E94F72AFC0113821282B582A48269
:1041A000F782E682B186A086F386E286168A1586B5
:1041B000148617861686FF24F394F58AF48A8FEF07
:1041C0009FEF938B828B918B808BF78A108E128E50
:1041D000118E89E591E091838083148E138ED68EA3
:1041E000C58E10A2178E8FEF84A385A386A387A305
:1041F00080A780E89AE1A6E0B0E085AB96ABA7ABDC
:10420000B0AF80EA96E8A1E0B0E081AF92AFA3AF93
:10421000B4AF80E586AF17AED801ED93FC9386E08E
:10422000E6E0F1E0AAE2B4E001900D928A95E1F7B0
:1042300088E0E1E8F1E0DE01119601900D928A95A7
:10424000E1F7EEEAF3E01082118212821382148207
:10425000158216821782108A118A128A138A148A8A
:10426000158A168A178A108E128E118E81E090E0C0
:10427000948F838F88E0FE013196A6EBB3E0019026
:104280000D928A95E1F700E314E080910C01909182
:104290000D01A0910E01F80180839183A2836FED3F
:1042A00071E083E394E00E949B17E9E3F4E081E28C
:1042B000DF011D928A95E9F78FED91E0F80193A750
:1042C00082A781E092E095A784A76FED71E08EE56B
:1042D00094E00E949B17D801D4961C92F80115AA6D
:1042E00016AA17AA10AE80E090E0ACE9B2E481AF64
:1042F00092AFA3AFB4AF15AE85E486AF10926F0452
:10430000109270041092710410927204109273044F
:10431000109274041092750410927604109277042F
:104320001092780410927904F0928004F092810443
:104330001092820480E895E2A0E0B0E080938304CC
:1043400090938404A0938504B093860460E875E29A
:1043500080E090E00E94140661E971E08EEF93E046
:104360000E949B1765E971E084E094E00E949B172E
:1043700069E971E08AE094E00E949B176DE971E0C1
:1043800080E194E00E949B1761EA71E086E194E08D
:104390000E949B1765EA71E08CE194E028960FB6C5
:1043A000F894DEBF0FBECDBFDF91CF911F910F916B
:1043B000FF90EF90DF90CF90BF90AF900C949B1741
:1043C000CF93DF93CDB7DEB7E2970FB6F894DEBF99
:1043D0000FBECDBF789484B5826084BD84B5816002
:1043E00084BD85B5826085BD85B5816085BD8091C0
:1043F0006E00816080936E00109281008091810038
:10440000826080938100809181008160809381002F
:10441000809180008160809380008091B1008460F1
:104420008093B1008091B00081608093B000809152
:104430007A00846080937A0080917A008260809311
:104440007A0080917A00816080937A0080917A006E
:10445000806880937A001092C10068EE73E080E07B
:1044600090E00E94270861E084E00E94070761E075
:1044700085E00E940707C0902204D0902304B090EA
:104480002804D6015F968D919C919097892B29F1F4
:10449000C6010E94C41DF6018681978164817581E1
:1044A000813291050CF0BDC0AC014052510957FF5B
:1044B00002C04F5F5F4F559547956357710977FF6E
:1044C00002C06F5F7F4F75956795F0E2EF2EF12C7C
:1044D00003E710E025EC35E0BCC016962D913C9129
:1044E000C901079697FD079623E0959587952A952C
:1044F000E1F7F60124813581AC01429FC001439F61
:10450000900D529F900D11240E94F72AD60190968B
:104510009C938E935F97892B09F0BACF80912204E8
:10452000909123040E94C41DE0912204F091230481
:1045300081E0848B858B81E090E0938B828B918BE3
:10454000808B158614861786168660918304709179
:10455000840480918504909186040E9414068EE064
:10456000EFE0F1E0DE01119601900D928A95E1F7FE
:1045700069EA71E085E093E00E9430156DED71E02D
:1045800085E093E00E9430154EE050E0BE016F5F81
:104590007F4F85E093E00E946E084EE050E0BE0140
:1045A0006F5F7F4F85E093E00E946E086FEB71E0D4
:1045B000CE010F960E949B17BE01615F7F4F85E081
:1045C00093E00E943F15CE010F960E94F51482E2FF
:1045D00094E090937F0480937E0460EE71E0CE01BE
:1045E00001960E949B17CE0101960E945C15CE0198
:1045F00001960E94F5148091CB030E94AB06813096
:1046000009F034C280E00E94CD070E94BB07809170
:10461000CB030E94AB06892B09F4FDC10E94E00781
:10462000F6CFAC014054510957FF02C04F5F5F4FB6
:10463000559547956255710977FF02C06F5F7F4FAF
:104640007595679510E4E12EF12C02E510E025EA5E
:1046500037E0C6010E948E0582E0F60182A3858DB7
:10466000968D892B09F4E0C08B2DB11006C0868190
:104670009781809709F0D6C08CE3D60191968C93F0
:104680001092F1021092F0021092020310920103B4
:104690000E94D81189E598E09093EF028093EE0292
:1046A0008AE598E09093ED028093EC02D60198960B
:1046B0008C9187FD1FC061E00E94070761E0F60151
:1046C00080A50E94D40661E070E080E090E00E9446
:1046D000270860E0D60198968C910E94D4066AE083
:1046E00070E080E090E00E94270861E0F60180A57C
:1046F0000E94D406D6015D968D919C915E97892B80
:1047000009F456C1D5962D913D914D915C91D89764
:1047100060E074E284EF90E00E94BD2A20513109EC
:104720004109510956954795379527952093B8002B
:1047300044E061EC75E0C6010E948313F6016681D6
:104740006150C6010E94281444E06DEB75E0C6017B
:104750000E948313D60192968C9160E1813009F01A
:1047600064E1C6010E94281444E069EB75E0C601CB
:104770000E9483138FE8F60185AF8481958180388C
:10478000910509F02CC1868197818034910509F04B
:1047900034C182A1813009F020C18FE9D601DD96B4
:1047A0008C9312E16AEDC6010E942814612FC601A4
:1047B0000E94281461E8C6010E942814F60165AD24
:1047C000C6010E94281469EDC6010E942814D60172
:1047D00092968C9162E2813009F061EFC6010E94ED
:1047E000281446E063EB75E0C6010E948313F601CE
:1047F000858D968D892B09F404C121AD32AD43AD71
:1048000054AD60E074E284EF90E00E94BD2A205134
:1048100031094109510956954795379527952093B8
:10482000B8007CCE8DE329CF61E086A10E94070706
:1048300061E0D60197968C910E940707F60186A148
:10484000082E000C990BFC01ED57F54FE491F0E0B8
:10485000EE0FFF1FE159F54F25913491D6019E9639
:104860003C932E939D97FC01E956F54FE491D39626
:10487000EC93D39797968C91082E000C990BFC0122
:10488000ED57F54FE491F0E0EE0FFF1FE159F54FC2
:10489000A591B491F601B0ABA7A7FC01E956F54F7D
:1048A0009491F60194AB8C91E92FE82BEC93D6010F
:1048B0005B968D919C91892B09F434C01FB7F894B5
:1048C0008091EB02811127C0EDE8FAE08491E1EAE2
:1048D000FAE09491E82FF0E0EE0FFF1FEB59F54F4F
:1048E000A591B491EC91E92321F461E08AE00E9462
:1048F000D40661E08AE00E9407078CB580618CBD18
:104900008CB580648CBD61E08DE00E94070761E09A
:104910008BE00E9407078091EB028F5F8093EB0290
:104920001FBFC4CE61E0F60184A10E94070761E0C9
:10493000D60195968C910E940707F60184A1082E56
:10494000000C990BFC01ED57F54FE491F0E0EE0FF0
:10495000FF1FE159F54F25913491D6019A963C936A
:104960002E939997FC01E956F54FE491D196EC937B
:10497000D19795968C91082E000C990BFC01ED5760
:10498000F54FE491F0E0EE0FFF1FE159F54FA591CF
:10499000B491F601B4A7A3A7FC01E956F54F949191
:1049A000F60192AB8C91E92FE095E823EC937ECE53
:1049B000F601838D948D892B21F086AD97AD0E94F1
:1049C000190CD6019F96ED91FC91D0979081D496C9
:1049D0008C91809589238083ABCE8FECDFCE80369F
:1049E000910559F486819781409739F482A18130ED
:1049F00031F480E1D601DD968C9312E0D3CE8FEABC
:104A0000F9CFD60107A4F0A9E02D8081D4969C911E
:104A1000892B808383CD81E00E94CD078091CB03D9
:104A20000E94AB06892B19F40E94E007F7CF0E9481
:104A300002070E94020768EE73E080E090E00E94A7
:104A400027088091CB030E94AB06813009F0A5C0F6
:104A500081E00E94CD070E94BB078091CB030E949A
:104A6000AB06892B89F00E94E007F7CF81E00E9416
:104A7000CD070E94BB078091CB030E94AB06892B18
:104A8000B1F60E94E007F7CF80E00E94CD07809149
:104A9000CB030E94AB06892B19F40E94E007F7CFE5
:104AA0000E9402070E94020768EE73E080E090E037
:104AB0000E94270881E00E94FE0780E00E94FE0716
:104AC00061E084E00E94D40662E370E080E090E060
:104AD0000E94270860E084E00E94D40661E085E03F
:104AE0000E94D40662E370E080E090E00E94270814
:104AF00060E085E00E94D40665EE71E0CE0101968B
:104B00000E949B17CE0101960E945C15CE01019672
:104B10000E94F51460ED77E080E090E00E942708A5
:104B200060EF71E0CE0101960E949B17CE010196C5
:104B30000E945C15CE0101960E94F51461E084E0AC
:104B40000E94D40662E370E080E090E00E942708B3
:104B500060E084E00E94D40668EE73E080E090E0BC
:104B60000E9427080E94581D809176049091770436
:104B7000A09178048093F5029093F602A093F70237
:104B80008091F702811118C00E94581D6AE070E000
:104B900080E090E00E942708E7CF80E00E94CD07E8
:104BA0000E94BB078091CB030E94AB06892B09F0C2
:104BB00077CF0E94E007F6CF63EF71E0CE01019658
:104BC0000E949B17CE0101960E945C15CE010196B2
:104BD0000E94F5148091F202882321F08091F30263
:104BE00081110FC00E94581D80917304909174042C
:104BF000A09175048093F2029093F302A093F402C3
:104C0000E9CF68EF71E0CE0101960E949B17CE01BB
:104C100001960E945C15CE0101960E94F5146091E8
:104C2000F302CE010F960E9428176091F202CE0186
:104C300045960E9428176091F702CE014B960E947C
:104C400028176091F602CE0181960E942817609184
:104C5000F502CE018D960E942817BE01635D7F4F3D
:104C6000CE0187960E9481176DEF71E0CE01879685
:104C70000E94CB16BE016F5D7F4F0E94E1166DEF63
:104C800071E00E94CB16BE01655E7F4F0E94E11667
:104C90006FEF71E00E94CB16BE016B5E7F4F0E94EA
:104CA000E11663E072E00E94CB16BE01615F7F4FA8
:104CB0000E94E116BC01CE0101960E948117CE012F
:104CC00001960E945C15CE0101960E94F514CE015A
:104CD00087960E94F514CE018D960E94F514CE01A0
:104CE00081960E94F514CE014B960E94F514CE01D8
:104CF00045960E94F514CE010F960E94F51400E02F
:104D000010E001151105E9F30E9418098823C9F381
:104D10000E940000F6CF662777270C94E5261F93A4
:104D2000FC0199278827BC01E89411911032E9F31E
:104D3000193010F01E30C8F31B3251F01D3249F407
:104D4000689406C00E94B626610F711D811D911DD9
:104D5000119110531A30B0F33EF4909580957095F0
:104D600061957F4F8F4F9F4F1F910895592F482F67
:104D7000372F262F660F771F881F991F660F771F03
:104D8000881F991F620F731F841F951F660F771F5F
:104D9000881F991F0895BB27FB015527AA27880F55
:104DA000991FAA1FA41710F0A41B83955051B9F79F
:104DB000A05DAA3308F0A95DA193009779F7B1111E
:104DC000B1931192CB010C945628B0E0A0E0EBEE29
:104DD000F6E20C949E295C017B016115710519F0C6
:104DE000DB018D939C9385010F5F1F4FF501D081EF
:104DF0008D2F90E00E9435286C01892BB9F5DD32AA
:104E0000B9F50F5F1F4FD5011196DC91C1E0580134
:104E1000F1E0AF1AB10843E050E060E770E0C5018F
:104E20000E943E28892B69F5680182E0C80ED11CDA
:104E300045E050E06BE670E0C6010E943E28892BF9
:104E400021F4680197E0C90ED11CE114F10419F0B6
:104E5000D701CD92DC9260E070E080E89FEFC11155
:104E6000FFC060E070E080E89FE7FAC05801BBCF68
:104E7000DB3229F485010E5F1F4FF501D181C0E0BF
:104E8000C6CF43E050E068E670E0C5010E943E28CE
:104E9000892BE9F0F80110E000E020E030E0A90102
:104EA0005F01B0ED8B2E8D0E89E08815C8F19C2E28
:104EB000689491F88C2F8870C2FF16C0811102C0CF
:104EC0000F5F1F4F3196D501DC91C92DE9CFE11459
:104ED000F10429F00E5F1F4FF7011183008360E09A
:104EE00070E080EC9FE7BCC0882311F001501109ED
:104EF000A5E0B0E00E948D299B01AC01220F331F79
:104F0000441F551F280D311D411D511D283999E998
:104F10003907490799E15907A8F2C6609C2ED2CFFC
:104F2000AEEF8A1206C0C3FD3CC09C2E689493F875
:104F3000C9CFDF7DD534A9F580818D3239F4C061C8
:104F4000DF011296818162E070E006C0DF018B32E2
:104F5000C1F3119661E070E080535D01A61AB70AB3
:104F60008A30F8F4E0E8CE16ECE0DE065CF4B60138
:104F7000660F771F660F771FC60ED71ECC0CDD1C81
:104F8000C80ED11C5D01FFEFAF1ABF0A8C91805390
:104F90008A30A8F1C4FF03C0D194C194D1080C0D8C
:104FA0001D1DC1FF09C0E114F10431F081E0A81A10
:104FB000B108D701AD92BC92CA01B9010E946B2819
:104FC000C370C33009F490584B015C0120E030E01D
:104FD000A9010E946628882309F440C0CFE9D0E0E7
:104FE00017FF05C0119501951109C7E8D0E06E01C2
:104FF000B8E1CB1AD10880E2E82EF12C0FC0D50120
:10500000B1CFFE0125913591459154910E191F099B
:10501000C501B4010E94CC284B015C01D501C4013B
:105020000E151F0574F72497F594E794CC16DD064A
:10503000A9F78A2F880F8B2F881F8F3F49F020E018
:1050400030E0A901C501B4010E946628811106C0A3
:1050500082E290E09093880480938704C501B401B4
:10506000CDB7DEB7ECE00C94BA2991110C94392934
:10507000803219F089508550C8F70895FB01DC0192
:105080004150504088F08D9181341CF08B350CF4E8
:10509000805E659161341CF06B350CF4605E861B9C
:1050A000611171F3990B0895881BFCCFDC01FC01A1
:1050B000672F71917723E1F7329704C07C916D934C
:1050C00070836291AE17BF07C8F308950E94A828A5
:1050D00008F481E00895E89409C097FB3EF49095A8
:1050E0008095709561957F4F8F4F9F4F9923A9F0C1
:1050F000F92F96E9BB279395F69587957795679550
:10510000B795F111F8CFFAF4BB0F11F460FF1BC093
:105110006F5F7F4F8F4F9F4F16C0882311F096E926
:1051200011C0772321F09EE8872F762F05C06623D4
:1051300071F096E8862F70E060E02AF09A95660F8D
:10514000771F881FDAF7880F9695879597F9089546
:10515000990F0008550FAA0BE0E8FEEF1616170688
:10516000E807F907C0F012161306E407F50798F0F0
:10517000621B730B840B950B39F40A2661F0232B09
:10518000242B252B21F408950A2609F4A140A69585
:105190008FEF811D811D08950E94DF280C945329F3
:1051A0000E94452938F00E944C2920F0952311F0E7
:1051B0000C943C290C94422911240C9487290E94B8
:1051C000642970F3959FC1F3950F50E0551F629FBE
:1051D000F001729FBB27F00DB11D639FAA27F00D50
:1051E000B11DAA1F649F6627B00DA11D661F829F77
:1051F0002227B00DA11D621F739FB00DA11D621F5C
:10520000839FA00D611D221F749F3327A00D611D78
:10521000231F849F600D211D822F762F6A2F11245A
:105220009F5750409AF0F1F088234AF0EE0FFF1F8D
:10523000BB1F661F771F881F91505040A9F79E3FE4
:10524000510580F00C943C290C9487295F3FE4F3CE
:10525000983ED4F3869577956795B795F795E7953A
:105260009F5FC1F7FE2B880F911D9695879597F943
:10527000089599278827089597F99F6780E870E037
:1052800060E008959FEF80EC089500240A941616BC
:10529000170618060906089500240A941216130624
:1052A000140605060895092E0394000C11F48823B2
:1052B00052F0BB0F40F4BF2B11F460FF04C06F5FCE
:1052C0007F4F8F4F9F4F089557FD9058440F551FA4
:1052D00059F05F3F71F04795880F97FB991F61F078
:1052E0009F3F79F087950895121613061406551FEF
:1052F000F2CF4695F1DF08C0161617061806991F5B
:10530000F1CF86957105610508940895E894BB274F
:1053100066277727CB0197F908950E94CF29A59F8B
:10532000900DB49F900DA49F800D911D11240895A0
:105330002F923F924F925F926F927F928F929F92A5
:10534000AF92BF92CF92DF92EF92FF920F931F9393
:10535000CF93DF93CDB7DEB7CA1BDB0B0FB6F89444
:10536000DEBF0FBECDBF09942A88398848885F8484
:105370006E847D848C849B84AA84B984C884DF80F5
:10538000EE80FD800C811B81AA81B981CE0FD11DD9
:105390000FB6F894DEBF0FBECDBFED010895A29FFA
:1053A000B001B39FC001A39F700D811D1124911DF9
:1053B000B29F700D811D1124911D08955058BB2777
:1053C000AA270E94F6290C9453290E94452938F0F7
:1053D0000E944C2920F039F49F3F19F426F40C94D4
:1053E00042290EF4E095E7FB0C943C29E92F0E943A
:1053F000642958F3BA17620773078407950720F0EA
:1054000079F4A6F50C9486290EF4E0950B2EBA2FAC
:10541000A02D0B01B90190010C01CA01A0011124BA
:10542000FF27591B99F0593F50F4503E68F11A1666
:10543000F040A22F232F342F4427585FF3CF4695F7
:1054400037952795A795F0405395C9F77EF41F1619
:10545000BA0B620B730B840BBAF09150A1F0FF0FE3
:10546000BB1F661F771F881FC2F70EC0BA0F621FCF
:10547000731F841F48F4879577956795B795F795BF
:105480009E3F08F0B0CF9395880F08F09927EE0F54
:105490009795879508950E945F2A0C9453290E943E
:1054A0004C2958F00E94452940F029F45F3F29F02B
:1054B0000C943C2951110C9487290C9442290E9488
:1054C000642968F39923B1F3552391F3951B550B88
:1054D000BB27AA2762177307840738F09F5F5F4FC7
:1054E000220F331F441FAA1FA9F335D00E2E3AF006
:1054F000E0E832D091505040E695001CCAF72BD01E
:10550000FE2F29D0660F771F881FBB1F261737076E
:105510004807AB07B0E809F0BB0B802DBF01FF27A0
:1055200093585F4F3AF09E3F510578F00C943C2918
:105530000C9487295F3FE4F3983ED4F386957795E2
:105540006795B795F7959F5FC9F7880F911D969559
:10555000879597F90895E1E0660F771F881FBB1FB5
:10556000621773078407BA0720F0621B730B840B62
:10557000BA0BEE1F88F7E0950895A1E21A2EAA1B38
:10558000BB1BFD010DC0AA1FBB1FEE1FFF1FA217F3
:10559000B307E407F50720F0A21BB30BE40BF50BF0
:1055A000661F771F881F991F1A9469F76095709579
:1055B000809590959B01AC01BD01CF0108952A19FA
:1055C0003B094C095D096E097F09800B910B089519
:1055D0002A153B054C055D056E057F058007910783
:1055E0000895EE0FFF1F0590F491E02D09940F939D
:1055F0001F93CF93DF938230910510F482E090E007
:10560000E0918B04F0918C0430E020E0B0E0A0E069
:10561000309799F42115310509F44AC0281B390B3C
:1056200024303105D8F58A819B816115710589F196
:10563000FB0193838283FE0111C04081518102816D
:10564000138148175907E0F04817590799F4109744
:1056500061F012960C93129713961C933296CF0119
:10566000DF91CF911F910F91089500938B041093B8
:105670008C04F4CF2115310551F04217530738F04F
:10568000A901DB019A01BD01DF01F801C1CFEF01E2
:10569000F9CF90938C0480938B04CDCFFE01E20F61
:1056A000F31F819391932250310939832883D7CFF7
:1056B0002091890430918A04232B41F42091020126
:1056C0003091030130938A042093890420910001D2
:1056D000309101012115310541F42DB73EB74091BC
:1056E000040150910501241B350BE0918904F091D0
:1056F0008A04E217F307A0F42E1B3F0B2817390783
:1057000078F0AC014E5F5F4F2417350748F04E0F1D
:105710005F1F50938A0440938904819391939FCF94
:10572000F0E0E0E09CCFCF93DF930097E9F0FC013D
:10573000329713821282A0918B04B0918C04ED01F8
:1057400030E020E01097A1F420813181820F931F77
:105750002091890430918A042817390709F061C023
:10576000F0938A04E0938904DF91CF910895EA01D0
:10577000CE17DF07E8F54A815B819E01411551058F
:10578000B1F7E901FB83EA8349915991C40FD51F11
:10579000EC17FD0761F4808191810296840F951FBB
:1057A000E90199838883828193819B838A83F0E0D6
:1057B000E0E012968D919C9113970097B9F52D9189
:1057C0003C911197CD010296820F931F209189047D
:1057D00030918A042817390739F6309751F510921D
:1057E0008C0410928B04B0938A04A0938904BCCFDC
:1057F000D383C28340815181840F951FC817D90775
:1058000061F44E5F5F4F88819981480F591F518322
:1058100040838A819B81938382832115310509F01E
:10582000B0CFF0938C04E0938B049ECFFD01DC019C
:10583000C0CF13821282D7CFB0E0A0E0E2E2FCE258
:105840000C949A298C01009751F4CB010E94F72AFD
:105850008C01C801CDB7DEB7E0E10C94B629FC019C
:10586000E60FF71F9C0122503109E217F30708F4F5
:105870009DC0D901CD91DC911197C617D70798F03B
:10588000C530D10530F3CE0104978617970708F38A
:10589000C61BD70B2297C193D1936D937C93CF01F5
:1058A0000E94932BD6CF5B01AC1ABD0A4C018C0E23
:1058B0009D1EA0918B04B0918C04512C412CF12C95
:1058C000E12C109731F58091890490918A04881514
:1058D000990509F05CC04616570608F058C080913B
:1058E000000190910101009741F48DB79EB740915E
:1058F000040150910501841B950BE817F90708F086
:1059000055C0F0938A04E0938904F90171836083A0
:10591000A0CF8D919C91119712966C90129713962F
:105920007C901397A815B90559F56C0142E0C40E97
:10593000D11CCA14DB0420F1AC014A195B09DA015D
:105940001296159780F06282738251834083D90149
:105950006D937C93E114F10471F0D7011396FC93DD
:10596000EE93129776CF22968C0F9D1FF9019183AB
:105970008083F301EFCFF0938C04E0938B0469CF25
:105980004816590608F42C017D01D3019ACFCB01AA
:105990000E94F72A7C01009749F0AE01B8010E94ED
:1059A000DE2CC8010E94932B870153CF10E000E04A
:1059B00050CF81E090E0F8940C940C2DFB01DC01B9
:1059C00002C001900D9241505040D8F70895DC017B
:1059D00001C06D9341505040E0F70895FB01DC0198
:1059E0008D91019080190110D9F3990B0895FB0155
:1059F000DC0101900D920020E1F70895FB01DC012C
:105A00004150504030F08D910190801919F40020E0
:105A1000B9F7881B990B089515E0C3E6D5E004C0DB
:105A2000FE010E94F12A2196C436D107C9F7F894E5
:025A3000FFCFA6
:105A320000008D0480000E0F10111213242C2AB5C1
:105A42006206080600C80001000100DE6A050208BD
:105A52000296010C02140217021F02220229022CD2
:105A620002000000004E096E089B089B090C09AA5F
:105A720008FE08000000006D124012E014D4103934
:105A8200122612171200000000570E6E08E0146D65
:105A920008620BD410FD10D510F110E5100411D4DA
:105AA200101D0C8A14D20A1B0B1D100010880F291E
:105AB2000F00000000000000003C4552524F523ED1
:105AC2000047474100474C4C00475341004753565B
:105AD20000524D430056544700505542582C343121
